{
  "address": "0x6c86E881Ee530c4B8859E9254b06ac9154599FED",
  "abi": [
    {
      "anonymous": false,
      "inputs": [
        {
          "indexed": true,
          "internalType": "uint256",
          "name": "workId",
          "type": "uint256"
        },
        {
          "indexed": true,
          "internalType": "address",
          "name": "reader",
          "type": "address"
        }
      ],
      "name": "WorkApplauded",
      "type": "event"
    },
    {
      "anonymous": false,
      "inputs": [
        {
          "indexed": true,
          "internalType": "uint256",
          "name": "workId",
          "type": "uint256"
        },
        {
          "indexed": true,
          "internalType": "address",
          "name": "reader",
          "type": "address"
        },
        {
          "indexed": false,
          "internalType": "string",
          "name": "genre",
          "type": "string"
        }
      ],
      "name": "WorkEndorsed",
      "type": "event"
    },
    {
      "anonymous": false,
      "inputs": [
        {
          "indexed": true,
          "internalType": "uint256",
          "name": "workId",
          "type": "uint256"
        },
        {
          "indexed": true,
          "internalType": "address",
          "name": "contributor",
          "type": "address"
        },
        {
          "indexed": false,
          "internalType": "string",
          "name": "title",
          "type": "string"
        }
      ],
      "name": "WorkSubmitted",
      "type": "event"
    },
    {
      "inputs": [
        {
          "internalType": "uint256",
          "name": "workId",
          "type": "uint256"
        }
      ],
      "name": "applaudWork",
      "outputs": [],
      "stateMutability": "nonpayable",
      "type": "function"
    },
    {
      "inputs": [
        {
          "internalType": "uint256",
          "name": "workId",
          "type": "uint256"
        },
        {
          "internalType": "string",
          "name": "genre",
          "type": "string"
        }
      ],
      "name": "endorseWorkInGenre",
      "outputs": [],
      "stateMutability": "nonpayable",
      "type": "function"
    },
    {
      "inputs": [],
      "name": "listAllWorks",
      "outputs": [
        {
          "internalType": "uint256[]",
          "name": "ids",
          "type": "uint256[]"
        }
      ],
      "stateMutability": "view",
      "type": "function"
    },
    {
      "inputs": [],
      "name": "nextWorkId",
      "outputs": [
        {
          "internalType": "uint256",
          "name": "",
          "type": "uint256"
        }
      ],
      "stateMutability": "view",
      "type": "function"
    },
    {
      "inputs": [],
      "name": "protocolId",
      "outputs": [
        {
          "internalType": "uint256",
          "name": "",
          "type": "uint256"
        }
      ],
      "stateMutability": "pure",
      "type": "function"
    },
    {
      "inputs": [
        {
          "internalType": "uint256",
          "name": "workId",
          "type": "uint256"
        },
        {
          "internalType": "string",
          "name": "genre",
          "type": "string"
        }
      ],
      "name": "readEndorsements",
      "outputs": [
        {
          "internalType": "euint32",
          "name": "votesHandle",
          "type": "bytes32"
        }
      ],
      "stateMutability": "view",
      "type": "function"
    },
    {
      "inputs": [
        {
          "internalType": "uint256",
          "name": "workId",
          "type": "uint256"
        }
      ],
      "name": "readWork",
      "outputs": [
        {
          "internalType": "uint256",
          "name": "id",
          "type": "uint256"
        },
        {
          "internalType": "address",
          "name": "contributor",
          "type": "address"
        },
        {
          "internalType": "string",
          "name": "title",
          "type": "string"
        },
        {
          "internalType": "string",
          "name": "synopsisHash",
          "type": "string"
        },
        {
          "internalType": "string",
          "name": "contentHash",
          "type": "string"
        },
        {
          "internalType": "string[]",
          "name": "tags",
          "type": "string[]"
        },
        {
          "internalType": "string[]",
          "name": "genres",
          "type": "string[]"
        },
        {
          "internalType": "uint64",
          "name": "timestamp",
          "type": "uint64"
        },
        {
          "internalType": "euint32",
          "name": "applauseHandle",
          "type": "bytes32"
        }
      ],
      "stateMutability": "view",
      "type": "function"
    },
    {
      "inputs": [
        {
          "internalType": "string",
          "name": "title",
          "type": "string"
        },
        {
          "internalType": "string",
          "name": "synopsisHash",
          "type": "string"
        },
        {
          "internalType": "string",
          "name": "contentHash",
          "type": "string"
        },
        {
          "internalType": "string[]",
          "name": "tags",
          "type": "string[]"
        },
        {
          "internalType": "string[]",
          "name": "genres",
          "type": "string[]"
        }
      ],
      "name": "submitWork",
      "outputs": [
        {
          "internalType": "uint256",
          "name": "workId",
          "type": "uint256"
        }
      ],
      "stateMutability": "nonpayable",
      "type": "function"
    }
  ],
  "transactionHash": "0x6de753b898db443c1f33e8e94e1fafa63f4049751a2a62d2c56517f6ca12ee16",
  "args": [],
  "numDeployments": 1,
  "solcInputHash": "d11ad552b77fc216ce701f60d2e6e5df",
  "bytecode": "0x608060405260015f55348015610013575f5ffd5b5061018e6100b2604080516080810182525f808252602082018190529181018290526060810191909152506040805160808101825273687820221192c5b662b25367f70076a37bc79b6c815273848b0066793bcc60346da1f49049357399b8d595602082015273a02cda4ca3a71d7c46997716f4283aa851c2881291810191909152731364cbbf2cdf5032c47d8226a6f6fbd2afcdacac606082015290565b80517f9e7b61f58c47dc699ac88507c4f5bb9f121c03808c5676a8078fe583e464970080546001600160a01b03199081166001600160a01b039384161790915560208301517f9e7b61f58c47dc699ac88507c4f5bb9f121c03808c5676a8078fe583e46497018054831691841691909117905560408301517f9e7b61f58c47dc699ac88507c4f5bb9f121c03808c5676a8078fe583e46497028054831691841691909117905560608301517f9e7b61f58c47dc699ac88507c4f5bb9f121c03808c5676a8078fe583e46497038054909216921691909117905550565b6114278061019b5f395ff3fe608060405234801561000f575f5ffd5b5060043610610085575f3560e01c8063958b0bc411610058578063958b0bc4146100f8578063d8b4e7311461010d578063d9dcf77a14610120578063da1f12ab14610133575f5ffd5b80630b7bdcd6146100895780632e06df7c146100ba57806383c4e8c9146100cf5780638c4ae9aa146100f0575b5f5ffd5b61009c610097366004610de5565b61013b565b6040516100b199989796959493929190610e84565b60405180910390f35b6100cd6100c8366004610de5565b610549565b005b6100e26100dd366004610f64565b610620565b6040519081526020016100b1565b6100e25f5481565b61010061065b565b6040516100b19190610fac565b6100e261011b36600461102f565b6106b1565b6100cd61012e366004610f64565b6108b3565b6127116100e2565b5f81815260016020819052604082209081015482916060918291829182918291879182916001600160a01b03166101aa5760405162461bcd60e51b815260206004820152600e60248201526d15dbdc9ac81b9bdd08199bdd5b9960921b60448201526064015b60405180910390fd5b80546001820154600883015460078401546002850180546001600160a01b0390941693909260038701926004880192600589019260068a019267ffffffffffffffff9091169187906101fb9061112f565b80601f01602080910402602001604051908101604052809291908181526020018280546102279061112f565b80156102725780601f1061024957610100808354040283529160200191610272565b820191905f5260205f20905b81548152906001019060200180831161025557829003601f168201915b505050505096508580546102859061112f565b80601f01602080910402602001604051908101604052809291908181526020018280546102b19061112f565b80156102fc5780601f106102d3576101008083540402835291602001916102fc565b820191905f5260205f20905b8154815290600101906020018083116102df57829003601f168201915b5050505050955084805461030f9061112f565b80601f016020809104026020016040519081016040528092919081815260200182805461033b9061112f565b80156103865780601f1061035d57610100808354040283529160200191610386565b820191905f5260205f20905b81548152906001019060200180831161036957829003601f168201915b5050505050945083805480602002602001604051908101604052809291908181526020015f905b82821015610455578382905f5260205f200180546103ca9061112f565b80601f01602080910402602001604051908101604052809291908181526020018280546103f69061112f565b80156104415780601f1061041857610100808354040283529160200191610441565b820191905f5260205f20905b81548152906001019060200180831161042457829003601f168201915b5050505050815260200190600101906103ad565b50505050935082805480602002602001604051908101604052809291908181526020015f905b82821015610523578382905f5260205f200180546104989061112f565b80601f01602080910402602001604051908101604052809291908181526020018280546104c49061112f565b801561050f5780601f106104e65761010080835404028352916020019161050f565b820191905f5260205f20905b8154815290600101906020018083116104f257829003601f168201915b50505050508152602001906001019061047b565b505050509250995099509950995099509950995099509950509193959799909294969850565b5f818152600160208190526040909120908101546001600160a01b03166105a35760405162461bcd60e51b815260206004820152600e60248201526d15dbdc9ac81b9bdd08199bdd5b9960921b60448201526064016101a1565b6105b281600701546001610af9565b600782018190556105c290610b24565b50600781015460018201546105e091906001600160a01b0316610b33565b506105ef816007015433610b45565b50604051339083907f793ed9dccdd9f1045b868a4550eee7b9b4bfee0c648f8170ad0f2710ff5819fd905f90a35050565b5f5f8383604051610632929190611167565b60408051918290039091205f968752600360209081528288209188525290942054949350505050565b606060028054806020026020016040519081016040528092919081815260200182805480156106a757602002820191905f5260205f20905b815481526020019060010190808311610693575b5050505050905090565b5f805481806106bf83611176565b9190505590505f6106cf5f610b50565b5f83815260016020819052604090912084815590810180547fffffffffffffffffffffffff000000000000000000000000000000000000000016331790559091506002810161071f8d8f836111fa565b506003810161072f8b8d836111fa565b506004810161073f898b836111fa565b5060088101805467ffffffffffffffff19164267ffffffffffffffff16179055600781018290555f5b868110156107c05781600501888883818110610786576107866112b4565b905060200281019061079891906112c8565b82546001810184555f9384526020909320909201916107b791836111fa565b50600101610768565b505f5b8481101561081b57816006018686838181106107e1576107e16112b4565b90506020028101906107f391906112c8565b82546001810184555f93845260209093209092019161081291836111fa565b506001016107c3565b506108298160070154610b24565b50610838816007015433610b33565b50600283908060018154018082558091505060019003905f5260205f20015f9091909190915055336001600160a01b0316837fd5d9bc882dc95f198786a74e52a0b87e49a07c80921b74821ba374339e394d308f8f60405161089b92919061130b565b60405180910390a350509a9950505050505050505050565b5f838152600160208190526040909120908101546001600160a01b031661090d5760405162461bcd60e51b815260206004820152600e60248201526d15dbdc9ac81b9bdd08199bdd5b9960921b60448201526064016101a1565b5f805b600683015481101561097c57848460405161092c929190611167565b6040518091039020836006018281548110610949576109496112b4565b905f5260205f200160405161095e9190611339565b604051809103902003610974576001915061097c565b600101610910565b50806109d55760405162461bcd60e51b815260206004820152602260248201527f576f726b20646f6573206e6f742062656c6f6e6720746f20746869732067656e604482015261726560f01b60648201526084016101a1565b5f84846040516109e6929190611167565b60408051918290039091205f888152600360209081528382208383528152838220548a8352600482528483208484529091529290205490925060ff16610a5557610a2f5f610b50565b5f8881526004602090815260408083208684529091529020805460ff1916600117905590505b610a60816001610af9565b5f88815260036020908152604080832086845290915290208190559050610a8681610b24565b506001840154610aa09082906001600160a01b0316610b33565b50610aab8133610b45565b50336001600160a01b0316877fe008a432ee1ab6c6ba0816003393d0f4037c015d7cce613d73873c676e581d408888604051610ae892919061130b565b60405180910390a350505050505050565b5f82610b0b57610b085f610b50565b92505b610b1d8363ffffffff84166001610b68565b9392505050565b5f610b2f8230610c48565b5090565b5f610b3e8383610c48565b5090919050565b5f610b3e8383610ccf565b5f610b628263ffffffff166004610d28565b92915050565b5f5f8215610b7b5750600160f81b610b7e565b505f5b5f7f9e7b61f58c47dc699ac88507c4f5bb9f121c03808c5676a8078fe583e4649700600181015460405163022f65e760e31b815260048101899052602481018890527fff00000000000000000000000000000000000000000000000000000000000000851660448201529192506001600160a01b03169063117b2f38906064016020604051808303815f875af1158015610c1a573d5f5f3e3d5ffd5b505050506040513d601f19601f82011682018060405250810190610c3e91906113aa565b9695505050505050565b7f9e7b61f58c47dc699ac88507c4f5bb9f121c03808c5676a8078fe583e46497008054604051635ca4b5b160e11b8152600481018590526001600160a01b0384811660248301529091169063b9496b62906044015b5f604051808303815f87803b158015610cb4575f5ffd5b505af1158015610cc6573d5f5f3e3d5ffd5b50505050505050565b7f9e7b61f58c47dc699ac88507c4f5bb9f121c03808c5676a8078fe583e46497008054604051630f8e573b60e21b8152600481018590526001600160a01b03848116602483015290911690633e395cec90604401610c9d565b7f9e7b61f58c47dc699ac88507c4f5bb9f121c03808c5676a8078fe583e464970154604051639cd07acb60e01b81525f917f9e7b61f58c47dc699ac88507c4f5bb9f121c03808c5676a8078fe583e4649700916001600160a01b0390911690639cd07acb90610d9d90879087906004016113c1565b6020604051808303815f875af1158015610db9573d5f5f3e3d5ffd5b505050506040513d601f19601f82011682018060405250810190610ddd91906113aa565b949350505050565b5f60208284031215610df5575f5ffd5b5035919050565b5f81518084528060208401602086015e5f602082860101526020601f19601f83011685010191505092915050565b5f82825180855260208501945060208160051b830101602085015f5b83811015610e7857601f19858403018852610e62838351610dfc565b6020988901989093509190910190600101610e46565b50909695505050505050565b8981526001600160a01b038916602082015261012060408201525f610ead61012083018a610dfc565b8281036060840152610ebf818a610dfc565b90508281036080840152610ed38189610dfc565b905082810360a0840152610ee78188610e2a565b905082810360c0840152610efb8187610e2a565b67ffffffffffffffff9590951660e084015250506101000152979650505050505050565b5f5f83601f840112610f2f575f5ffd5b50813567ffffffffffffffff811115610f46575f5ffd5b602083019150836020828501011115610f5d575f5ffd5b9250929050565b5f5f5f60408486031215610f76575f5ffd5b83359250602084013567ffffffffffffffff811115610f93575f5ffd5b610f9f86828701610f1f565b9497909650939450505050565b602080825282518282018190525f918401906040840190835b81811015610fe3578351835260209384019390920191600101610fc5565b509095945050505050565b5f5f83601f840112610ffe575f5ffd5b50813567ffffffffffffffff811115611015575f5ffd5b6020830191508360208260051b8501011115610f5d575f5ffd5b5f5f5f5f5f5f5f5f5f5f60a08b8d031215611048575f5ffd5b8a3567ffffffffffffffff81111561105e575f5ffd5b61106a8d828e01610f1f565b909b5099505060208b013567ffffffffffffffff811115611089575f5ffd5b6110958d828e01610f1f565b90995097505060408b013567ffffffffffffffff8111156110b4575f5ffd5b6110c08d828e01610f1f565b90975095505060608b013567ffffffffffffffff8111156110df575f5ffd5b6110eb8d828e01610fee565b90955093505060808b013567ffffffffffffffff81111561110a575f5ffd5b6111168d828e01610fee565b915080935050809150509295989b9194979a5092959850565b600181811c9082168061114357607f821691505b60208210810361116157634e487b7160e01b5f52602260045260245ffd5b50919050565b818382375f9101908152919050565b5f6001820161119357634e487b7160e01b5f52601160045260245ffd5b5060010190565b634e487b7160e01b5f52604160045260245ffd5b601f8211156111f557805f5260205f20601f840160051c810160208510156111d35750805b601f840160051c820191505b818110156111f2575f81556001016111df565b50505b505050565b67ffffffffffffffff8311156112125761121261119a565b61122683611220835461112f565b836111ae565b5f601f841160018114611257575f85156112405750838201355b5f19600387901b1c1916600186901b1783556111f2565b5f83815260208120601f198716915b828110156112865786850135825560209485019460019092019101611266565b50868210156112a2575f1960f88860031b161c19848701351681555b505060018560011b0183555050505050565b634e487b7160e01b5f52603260045260245ffd5b5f5f8335601e198436030181126112dd575f5ffd5b83018035915067ffffffffffffffff8211156112f7575f5ffd5b602001915036819003821315610f5d575f5ffd5b60208152816020820152818360408301375f818301604090810191909152601f909201601f19160101919050565b5f5f83546113468161112f565b60018216801561135d57600181146113725761139f565b60ff198316865281151582028601935061139f565b865f5260205f205f5b838110156113975781548882015260019091019060200161137b565b505081860193505b509195945050505050565b5f602082840312156113ba575f5ffd5b5051919050565b82815260408101605483106113e457634e487b7160e01b5f52602160045260245ffd5b826020830152939250505056fea264697066735822122086213be96678f2a4ccc6763e21d9bc0e8285402134c46d2318cfc58be8805c8c64736f6c634300081b0033",
  "devdoc": {
    "kind": "dev",
    "methods": {},
    "title": "ClassicSalon  FHE ",
    "version": 1
  },
  "userdoc": {
    "kind": "user",
    "methods": {
      "applaudWork(uint256)": {
        "notice": " +1"
      },
      "endorseWorkInGenre(uint256,string)": {
        "notice": " +1"
      },
      "listAllWorks()": {
        "notice": " ID"
      },
      "readEndorsements(uint256,string)": {
        "notice": ""
      },
      "readWork(uint256)": {
        "notice": ""
      },
      "submitWork(string,string,string,string[],string[])": {
        "notice": " 0"
      }
    },
    "notice": " FHE ",
    "version": 1
  },
  "storageLayout": {
    "storage": [
      {
        "astId": 39065,
        "contract": "contracts/ClassicSalon.sol:ClassicSalon",
        "label": "nextWorkId",
        "offset": 0,
        "slot": "0",
        "type": "t_uint256"
      },
      {
        "astId": 39070,
        "contract": "contracts/ClassicSalon.sol:ClassicSalon",
        "label": "_works",
        "offset": 0,
        "slot": "1",
        "type": "t_mapping(t_uint256,t_struct(ClassicWork)39062_storage)"
      },
      {
        "astId": 39073,
        "contract": "contracts/ClassicSalon.sol:ClassicSalon",
        "label": "_workIds",
        "offset": 0,
        "slot": "2",
        "type": "t_array(t_uint256)dyn_storage"
      },
      {
        "astId": 39080,
        "contract": "contracts/ClassicSalon.sol:ClassicSalon",
        "label": "_endorsementsByWorkAndGenre",
        "offset": 0,
        "slot": "3",
        "type": "t_mapping(t_uint256,t_mapping(t_bytes32,t_userDefinedValueType(euint32)39611))"
      },
      {
        "astId": 39086,
        "contract": "contracts/ClassicSalon.sol:ClassicSalon",
        "label": "_endorsementsInitialized",
        "offset": 0,
        "slot": "4",
        "type": "t_mapping(t_uint256,t_mapping(t_bytes32,t_bool))"
      }
    ],
    "types": {
      "t_address": {
        "encoding": "inplace",
        "label": "address",
        "numberOfBytes": "20"
      },
      "t_array(t_string_storage)dyn_storage": {
        "base": "t_string_storage",
        "encoding": "dynamic_array",
        "label": "string[]",
        "numberOfBytes": "32"
      },
      "t_array(t_uint256)dyn_storage": {
        "base": "t_uint256",
        "encoding": "dynamic_array",
        "label": "uint256[]",
        "numberOfBytes": "32"
      },
      "t_bool": {
        "encoding": "inplace",
        "label": "bool",
        "numberOfBytes": "1"
      },
      "t_bytes32": {
        "encoding": "inplace",
        "label": "bytes32",
        "numberOfBytes": "32"
      },
      "t_mapping(t_bytes32,t_bool)": {
        "encoding": "mapping",
        "key": "t_bytes32",
        "label": "mapping(bytes32 => bool)",
        "numberOfBytes": "32",
        "value": "t_bool"
      },
      "t_mapping(t_bytes32,t_userDefinedValueType(euint32)39611)": {
        "encoding": "mapping",
        "key": "t_bytes32",
        "label": "mapping(bytes32 => euint32)",
        "numberOfBytes": "32",
        "value": "t_userDefinedValueType(euint32)39611"
      },
      "t_mapping(t_uint256,t_mapping(t_bytes32,t_bool))": {
        "encoding": "mapping",
        "key": "t_uint256",
        "label": "mapping(uint256 => mapping(bytes32 => bool))",
        "numberOfBytes": "32",
        "value": "t_mapping(t_bytes32,t_bool)"
      },
      "t_mapping(t_uint256,t_mapping(t_bytes32,t_userDefinedValueType(euint32)39611))": {
        "encoding": "mapping",
        "key": "t_uint256",
        "label": "mapping(uint256 => mapping(bytes32 => euint32))",
        "numberOfBytes": "32",
        "value": "t_mapping(t_bytes32,t_userDefinedValueType(euint32)39611)"
      },
      "t_mapping(t_uint256,t_struct(ClassicWork)39062_storage)": {
        "encoding": "mapping",
        "key": "t_uint256",
        "label": "mapping(uint256 => struct ClassicSalon.ClassicWork)",
        "numberOfBytes": "32",
        "value": "t_struct(ClassicWork)39062_storage"
      },
      "t_string_storage": {
        "encoding": "bytes",
        "label": "string",
        "numberOfBytes": "32"
      },
      "t_struct(ClassicWork)39062_storage": {
        "encoding": "inplace",
        "label": "struct ClassicSalon.ClassicWork",
        "members": [
          {
            "astId": 39042,
            "contract": "contracts/ClassicSalon.sol:ClassicSalon",
            "label": "id",
            "offset": 0,
            "slot": "0",
            "type": "t_uint256"
          },
          {
            "astId": 39044,
            "contract": "contracts/ClassicSalon.sol:ClassicSalon",
            "label": "contributor",
            "offset": 0,
            "slot": "1",
            "type": "t_address"
          },
          {
            "astId": 39046,
            "contract": "contracts/ClassicSalon.sol:ClassicSalon",
            "label": "title",
            "offset": 0,
            "slot": "2",
            "type": "t_string_storage"
          },
          {
            "astId": 39048,
            "contract": "contracts/ClassicSalon.sol:ClassicSalon",
            "label": "synopsisHash",
            "offset": 0,
            "slot": "3",
            "type": "t_string_storage"
          },
          {
            "astId": 39050,
            "contract": "contracts/ClassicSalon.sol:ClassicSalon",
            "label": "contentHash",
            "offset": 0,
            "slot": "4",
            "type": "t_string_storage"
          },
          {
            "astId": 39053,
            "contract": "contracts/ClassicSalon.sol:ClassicSalon",
            "label": "tags",
            "offset": 0,
            "slot": "5",
            "type": "t_array(t_string_storage)dyn_storage"
          },
          {
            "astId": 39056,
            "contract": "contracts/ClassicSalon.sol:ClassicSalon",
            "label": "genres",
            "offset": 0,
            "slot": "6",
            "type": "t_array(t_string_storage)dyn_storage"
          },
          {
            "astId": 39059,
            "contract": "contracts/ClassicSalon.sol:ClassicSalon",
            "label": "applauseEnc",
            "offset": 0,
            "slot": "7",
            "type": "t_userDefinedValueType(euint32)39611"
          },
          {
            "astId": 39061,
            "contract": "contracts/ClassicSalon.sol:ClassicSalon",
            "label": "timestamp",
            "offset": 0,
            "slot": "8",
            "type": "t_uint64"
          }
        ],
        "numberOfBytes": "288"
      },
      "t_uint256": {
        "encoding": "inplace",
        "label": "uint256",
        "numberOfBytes": "32"
      },
      "t_uint64": {
        "encoding": "inplace",
        "label": "uint64",
        "numberOfBytes": "8"
      },
      "t_userDefinedValueType(euint32)39611": {
        "encoding": "inplace",
        "label": "euint32",
        "numberOfBytes": "32"
      }
    }
  }
}